:1000000012C0189518951895189518951895189563
:100010001895189518951895189518951895189578
:100020001895189518958FE58DBFC0E4E8E34E2E1E
:1000300084E08EBFD4E0F4E05F2EA89584B7082E4C
:10004000877F84BF88E1992781BD91BDEEEFF3E002
:10005000A0E6B0E088278D933197E9F70E94DF0191
:10006000662474B7777F74BF8EE181BD86E081BD61
:100070008FEF87BB80E081BBB99ABA9A81EA8FBDC6
:1000800081E08EBDBB9A81E785BDB99ABA9ABB9AC9
:1000900070E073BD8FEF90E090934B0080934A0027
:1000A0008FEF90E0909349008093480081E0809327
:1000B0006000009160000F3F10F009F012C0AAE448
:1000C000B0E076D183B5839583BDA5E6B0E08D9190
:1000D0009C91D5D1A0E6B0E08C918F5F8C9308F411
:1000E000E8CF39D081E080936000009160000F3F3D
:1000F00010F009F012C0A8E4B0E05AD1AAE4B0E0D0
:1001000050D1A5E6B0E08D919C91B9D1A0E6B0E0C8
:100110008C918F5F8C9308F4E8CF1DD081E08093A1
:100120006000009160000F3F10F009F012C083B52D
:100130008A9583BDA8E4B0E034D1A5E6B0E08D9106
:100140009C919DD1A0E6B0E08C918F5F8C9308F4D8
:10015000E8CF01D0ABCF809907C084EF91E0A3E650
:10016000B0E08D939C9306C088EC90E0A3E6B0E0ED
:100170008D939C93819907C085E090E0A5E6B0E05F
:100180008D939C9306C08FE090E0A5E6B0E08D9340
:100190009C93829906C080E090E0A5E6B0E08D9344
:1001A0009C93839901C026C0A3E6B0E08D919C91F9
:1001B0008A939A930BD1A7E6B0E00D931C9381E04C
:1001C00090E0A1E6B0E08D939C93A7E6B0E04D915E
:1001D0005C91A1E6B0E00D911C910417150714F095
:1001E00009F007C08AE090E04AD1A1E6B0E0D9D09A
:1001F000ECCF08958FEF90E090934B0080934A00EE
:100200008FEF90E090934900809348007FEF73BD9B
:10021000839B0FC08FEF90E090934B0080934A0038
:100220008FEF90E0909349008093480070E073BD99
:100230003DCF8FEF90E08A939A93C8D0A9E6B0E0C3
:100240000C9381E080936000409169000091600010
:10025000041710F009F00FC0AAE4B0E0A9D0A5E699
:10026000B0E08D919C910BD1A0E6B0E08C918F5FB6
:100270008C9308F4E9CF8FEF90E08A939A93A6D0FD
:10028000AAE6B0E00C9381E08093600040916A00A0
:1002900000916000041710F009F00FC0A8E4B0E06E
:1002A00087D0A5E6B0E08D919C91E9D0A0E6B0E0C2
:1002B0008C918F5F8C9308F4E9CF8FEF90E08A9355
:1002C0009A9384D0ABE6B0E00C9381E08093600019
:1002D00040916B0000916000041710F009F00FC00E
:1002E00083B58A9583BDA5E6B0E08D919C91C7D07A
:1002F000A0E6B0E08C918F5F8C9308F4E9CF81E0A9
:10030000809360004091690000916000041710F034
:1003100009F00FC0AAE4B0E044D0A5E6B0E08D91AA
:100320009C91ADD0A0E6B0E08C918F5F8C9308F4E7
:10033000E9CF81E08093600040916A000091600005
:10034000041710F009F00FC0A8E4B0E02AD0A5E629
:10035000B0E08D919C9193D0A0E6B0E08C918F5F3E
:100360008C9308F4E9CF81E08093600040916B00AA
:1003700000916000041710F009F00FC083B5839559
:1003800083BDA5E6B0E08D919C9179D0A0E6B0E068
:100390008C918F5F8C9308F4E9CFDDDE39CFF89430
:1003A000FFCFED91FC91EF5FFF4FFC93EE9308952B
:1003B000ED91FC91E150F040FC93EE93089515E02F
:1003C00000E000936C0010936D00089540916C0064
:1003D00050916D000DEF13E461D00D531146009361
:1003E0006C0010936D005991499126D0089508D062
:1003F00055D000FC10D0089503D01ED001F8F9CFDD
:100400000024E89457FF02C009D0689400F80BD08C
:1004100010F80124089502D009D008955095409510
:100420004F5F5F4F0895E89417FF0895009510956A
:100430000F5F1F4F68940895352F242FE894452BA4
:1004400011F468940895512F402F0027112780E15F
:10045000440F551F001F111F021B130B416018F49E
:10046000020F131F4E7F8A9599F708953197F1F780
:100470000895689462F80895E89462F80895EF93F7
:10048000FF93EE27E82BE92B31F0EAEFF0E031970C
:10049000F1F70197D1F7FF91EF9108950F92B8010D
:1004A000469F8001479F100D569F100D0F90089595
:00000001FF
